:100000000C940E020C9436020C9436020C943602B8
:100010000C9436020C9436020C9436020C94360280
:100020000C9436020C9436020C9436020C94360270
:100030000C9436020C9436020C9436020C94360260
:100040000C9423340C9436020C94DD040C941905A2
:100050000C9436020C9436020C9436020C94360240
:100060000C9436020C943602BF07BF07C507C807B9
:10007000CB07CE07D107D407D707DA07DD07E0079C
:10008000E307E607E907EC07EF07084AD73B3BCE53
:10009000016E84BCBFFDC12F3D6C74319ABD568387
:1000A0003DDA3D00C77F11BED9E4BB4C3E916BAA3F
:1000B000AABE000000803F05A84CCDB2D44EB9388E
:1000C00036A9020C50B9918688083CA6AAAA2ABE75
:1000D000000000803F0664EC1B3C04BC163E3BE580
:1000E000B93CC93C37C29E5A3D660498083EEA694D
:1000F000AAAA3E000000803FEAEB00EAEC00426F53
:100100006F74696E672075703AEDF2F2F2F2F2F2F6
:10011000F2F30057616974696E6720666F727C4DF7
:1001200041564C696E6B20686561727462656174DA
:10013000732E2E2E00C820202020202020202020BA
:100140002020C900C820202020202020202020207E
:1001500020C97C00D8202020202020202020202002
:1001600020D97C00C82020202020202020202020F2
:1001700020C97C00C82020202020202020202020F2
:1001800020C97C00050304057C1513141500426189
:100190007474657279207761726E696E67200020D1
:1001A00020205374616C6C2053706565642020209E
:1001B00000202020204F76657273706565642020D2
:1001C0002020001820209091200020202020202096
:1001D000BABBBCBDBE7C202020202020CACBCCCD09
:1001E000CE7C4172647543414D204F53442076329A
:1001F0002E31004368617220446F6E650A005265BB
:1002000061647920666F7220466F6E740A005570C3
:1002100064617465204368617253657400EEEEEEAC
:10022000EEEEEEEEEE00EEEEEEEEEEEEEE00EEEECA
:10023000EEEEEEEEF000EEEEEEEEEEF0F200EEEEB2
:10024000EEEEF0F2F200EEEEEEF0F2F2F200EEEE92
:10025000F0F2F2F2F200EEF0F2F2F2F2F200EFF26D
:10026000F2F2F2F2F200F1F2F2F2F2F2F200526580
:100270007175657374696E6720446174615374723B
:1002800065616D732E2E2E00454550524F4D206DE9
:10029000617070696E67206F757464617465642144
:1002A0007C55706461746520776974682074686532
:1002B000204F534420546F6F6C2E0000407A10F38F
:1002C0005A00A0724E18090010A5D4E80000E87684
:1002D00048170000E40B54020000CA9A3B000000DB
:1002E000E1F505000080969800000040420F0000F4
:1002F00000A08601000000102700000000E80300B5
:100300000000006400000000000A0000000000017E
:1003100000000000002C76D888DC674F0823DFC17E
:10032000DFAE59E1B1B796E5E3E453C63AE6519939
:100330007696E8E6C28426EB898C9B62ED407C6F62
:10034000FCEFBC9C9F40F2BAA56FA5F490055A2A19
:10035000F75C936B6CF9676DC11BFCE0E40D47FE25
:10036000F520E6B500D0ED902E030094357705001A
:1003700080841E080000204E0A000000C80C3333A1
:1003800033330F986E12831141EF8D2114893BE6B0
:100390005516CFFEE6DB18D1844B381BF77C1D9039
:1003A0001DA4BBE424203284725E228100C9F124A2
:1003B000ECA1E53D276E616E00696E6600000000ED
:1003C00000240027002A0000000000250028002B40
:1003D0000000000000230026002900040404040497
:1003E00004040402020202020203030303030301E2
:1003F00002040810204080010204081020010204B9
:10040000081020000000070002010000030406009D
:100410000000000000000000A2045D0611241FBEC1
:10042000CFEFD8E0DEBFCDBF14E0A0E0B1E0ECEF4D
:10043000F2E702C005900D92A034B107D9F716E09B
:10044000A0E4B4E001C01D92A036B107E1F714E0CA
:10045000CCE1D4E004C02297FE010E947839C83173
:10046000D107C9F70E9441350C947C390C940000E7
:10047000FA01AA27283051F1203181F1E8946F93D5
:100480006E7F6E5F7F4F8F4F9F4FAF4FB1E03ED07B
:10049000B4E03CD0670F781F891F9A1FA11D680F19
:1004A000791F8A1F911DA11D6A0F711D811D911D4C
:1004B000A11D20D009F468943F912AE0269F1124C1
:1004C0003019305D3193DEF6CF010895462F477025
:1004D000405D4193B3E00FD0C9F7F6CF462F4F7080
:1004E000405D4A3318F0495D31FD4052419302D0DE
:1004F000A9F7EACFB4E0A695979587957795679584
:10050000BA95C9F700976105710508959B01AC0183
:100510000A2E06945795479537952795BA95C9F7AA
:10052000620F731F841F951FA01D0895283008F0C7
:1005300027E03327DA01990F311D87FD916000967E
:100540006105710539F432602E5F3D9330E32A95E1
:10055000E1F708959F3F30F080387105610509F09B
:100560003C5F3C5F3D93913008F08068911DDF93C4
:10057000CF931F930F93FF92EF92192F987F969529
:10058000E92F96959695E90FFF27EB5EFC4F99278B
:100590003327EE24FF24A701E70105900894079470
:1005A00028F4360FE71EF81E491F511D660F771FEE
:1005B000881F991F0694A1F70590079428F4E70E69
:1005C000F81E491F561FC11D770F881F991F661FF0
:1005D0000694A1F70590079428F4F80E491F561FBA
:1005E000C71FD11D880F991F661F771F0694A1F79B
:1005F0000590079420F4490F561FC71FD81F990F65
:10060000661F771F881F0694A9F7849110951770AD
:1006100041F0D695C79557954795F794E7941A9565
:10062000C1F7EBEBF2E06894159015913591659167
:10063000959105907FE27395E118F10A430B560BF3
:10064000C90BD009C0F7E10CF11E431F561FC91F8B
:10065000D01D7EF4703311F48A95E6CFE8940150F2
:1006600030F0080F0AF40027021708F4202F239512
:10067000022F7A3328F079E37D932A95E9F710C0A9
:100680007D932A9589F606949795679537951795E2
:100690001794E118F10A430B560BC90BD00998F0D7
:1006A00023957E9173957A3308F070E37C93201341
:1006B000B8F77E9170617D9330F0839571E37D93FF
:1006C00070E32A95E1F71124EF90FF900F911F91AD
:1006D000CF91DF91992787FD90950895CF93DF9370
:1006E000BC018230910510F462E070E0A0915E06DA
:1006F000B0915F06ED01E0E0F0E040E050E021C0A5
:10070000888199818617970769F48A819B81309740
:1007100019F09383828304C090935F0680935E06F2
:10072000FE0134C06817790738F44115510519F0F6
:100730008417950708F4AC01FE018A819B819C0116
:10074000E9012097E9F641155105A9F1CA01861B77
:10075000970B049708F4BA01E0E0F0E02AC08D910D
:100760009C91119784179507F9F46417750781F424
:1007700012968D919C911397309719F093838283F1
:1007800004C090935F0680935E06FD0132964CC0D4
:10079000CA01861B970BFD01E80FF91F6193719346
:1007A00002978D939C9340C0FD01828193819C01AF
:1007B000D9011097A1F680915C0690915D06892B76
:1007C00041F48091C2029091C30290935D068093A0
:1007D0005C064091C4025091C5024115510541F497
:1007E0004DB75EB78091C0029091C102481B590B72
:1007F00020915C0630915D06CA01821B930B86171F
:10080000970780F0AB014E5F5F4F8417950750F05C
:10081000420F531F50935D0640935C06F9016193AC
:10082000719302C0E0E0F0E0CF01DF91CF91089535
:10083000CF93DF93009709F450C0EC0122971B82FD
:100840001A82A0915E06B0915F06109709F140E010
:1008500050E0AC17BD0708F1BB83AA83FE012191CC
:100860003191E20FF31FAE17BF0779F48D919C9180
:100870001197280F391F2E5F3F4F39832883129617
:100880008D919C9113979B838A834115510571F437
:10089000D0935F06C0935E0620C012968D919C9106
:1008A0001397AD01009711F0DC01D3CFFA01D38388
:1008B000C28321913191E20FF31FCE17DF0769F454
:1008C00088819981280F391F2E5F3F4FFA013183AC
:1008D00020838A819B8193838283DF91CF910895C6
:1008E000FC010590615070400110D8F780959095FB
:1008F0008E0F9F1F0895FC01615070400190011000
:10090000D8F7809590958E0F9F1F08956EBD0DB4FA
:1009100007FEFDCF8EB508958DE061E00E94903313
:100920008BE061E00E9490338CE060E00E949033A5
:100930008AE061E00E9490331CBC80E58CBD8DB5DF
:100940008EB5089580E494E00E948C040895CF92BF
:10095000DF92EF92FF920F931F93CF93DF938C015F
:100960006B017A01C0E0D0E01CC0F601EC0FFD1F66
:1009700060810115110521F00130110589F405C0D0
:10098000E0914F06F091500604C0E0915106F091BD
:100990005206A081B1812D913C91CF01F9010995B9
:1009A0002196CE15DF0508F3DF91CF911F910F91AE
:1009B000FF90EF90DF90CF9008951F920F920FB6A7
:1009C0000F9211242F933F934F938F939F93EF9305
:1009D000FF934091C60020913D0630913E062F5F67
:1009E0003F4F809141069091420628233923809100
:1009F0003F06909140062817390779F080913D060F
:100A000090913E06E0914306F0914406E80FF91FED
:100A1000408330933E0620933D06FF91EF919F91D6
:100A20008F914F913F912F910F900FBE0F901F907C
:100A300018951F920F920FB60F9211242F933F9388
:100A40008F939F93EF93FF93209147063091480631
:100A5000809145069091460628173907E9F0809164
:100A6000470690914806E0914B06F0914C06E80F3E
:100A7000F91F80818093C6008091470690914806B7
:100A800001962091490630914A0682239323909340
:100A900048068093470610C02091450630914606CF
:100AA00080914706909148062817390729F48091CC
:100AB000C1008F7D8093C100FF91EF919F918F9135
:100AC0003F912F910F900FBE0F901F9018952F926E
:100AD0003F924F925F926F927F928F929F92AF92CE
:100AE000BF92CF92DF92EF92FF920F931F93DF930B
:100AF000CF93CDB7DEB72E970FB6F894DEBF0FBEFB
:100B0000CDBF0CEE13E060EEE62E63E0F62E53E070
:100B1000C52ED12CCC0EDD1E42E4242E3AE0432E0D
:100B2000512C4C0E5D1E2FE0622E712C6C0E7D1E22
:100B300099E0892E912C8C0E9D1E84E9382E5E0141
:100B40000894A11CB11C2091A4053091A505F801C1
:100B50004081F701808191819C838B832D833E832B
:100B60004F83F1E0F8878EEF898796E09A8790911E
:100B700029069B878091DA028C878091DB028D8722
:100B80002E869F5F909329066FEF7FEFF2011CC0C6
:100B900021912627822F8295807F822790E0382F0F
:100BA0002227AC01A3E0440F551FAA95E1F72427A3
:100BB0003527672F772762277327A4E095958795B8
:100BC000AA95E1F768277927E615F70509F7F601F1
:100BD0001AC081918627282F2295207F282730E070
:100BE000722F6627C90143E0880F991F4A95E1F7E4
:100BF000682779276A277B27B4E035952795BA952A
:100C0000E1F762277327A72FBB27E815F90509F736
:100C1000862F8325282F2295207F282730E0922FAA
:100C20008827A90163E0440F551F6A95E1F78427DF
:100C300095278A279B2744E0359527954A95E1F724
:100C40008227932789839A8380E090E0BF0146E062
:100C500050E00E94A70480E090E0B60146E050E03A
:100C60000E94A70480E090E0B50142E050E00E94BD
:100C7000A7040F5F1F4FE2E0F0E0EE0EFF1EF3E06F
:100C8000023F1F0709F05FCF2E960FB6F894DEBF24
:100C90000FBECDBFCF91DF911F910F91FF90EF90CD
:100CA000DF90CF90BF90AF909F908F907F906F908C
:100CB0005F904F903F902F9008958F92AF92CF9278
:100CC000EF92FF920F931F9385EC94E060E045EC68
:100CD00050E024EC30E000EC10E0F1ECEF2EF12CD1
:100CE000CC24C394E8E9AE2E70E2872E0E943B2C00
:100CF00082EE94E00E94462A1092F5041092F604C7
:100D00001092F7041092F8041092F9041092FA0469
:100D10001092FB041092FC041092FE041092FD0449
:100D20001092F4041F910F91FF90EF90CF90AF902D
:100D30008F9008958EE496E06AE773E00E94F032A7
:100D40008823E9F486E696E6A6E6B0E48093FF04FD
:100D500090930005A0930105B093020580E090E018
:100D6000A0E8BFE38093030590930405A0930505D5
:100D7000B093060581E8809307058DE81CC082E5E5
:100D800098EBAEE0B0E48093FF0490930005A0934D
:100D90000105B093020585E89BEEA1E5B0E48093E0
:100DA000030590930405A0930505B09306058BEF0A
:100DB0008093070586E6809308050895CF93DF9317
:100DC0008EE496E06CE773E00E94F03280934A056F
:100DD0008EE496E06EE773E00E94F032809349055E
:100DE0008EE496E060E873E00E94F03280934B0559
:100DF0008EE496E06EE873E00E94F0328093820504
:100E00008EE496E06AE873E00E94F0328093790500
:100E10008EE496E064E873E00E94F03280939C05D3
:100E20008EE496E066E873E00E94F03280939B05C2
:100E30008EE496E06CE873E00E94F03210924E056A
:100E4000882319F081E080934E058EE496E062E9F4
:100E500073E00E94F03280934C058EE496E064E9E2
:100E600073E00E94F03280934D05C0E0D0E0BE01F7
:100E700068567C4F8EE496E00E94F032FE01EF56F9
:100E8000FA4F8083882321F02196C830D10579F765
:100E9000CF56DA4F1982DF91CF910895BC018EE4CD
:100EA00096E00E94F03208951F93282F362F142FBA
:100EB00082EE94E0622F432F0E94FC2A1530F9F055
:100EC000163060F41230A9F0133018F4113001F527
:100ED0000EC0133081F01430D9F40FC0173099F0E0
:100EE000173078F0183089F0193091F410C026E0EE
:100EF0000FC027E00DC028E00BC029E009C02AE0A0
:100F000007C02BE005C02CE003C02DE001C02EE09F
:100F100000D000D000D0EDB7FEB7319682EE94E05D
:100F2000ADB7BEB712969C938E93119780E091E077
:100F300093838283822F992787FD9095958384835D
:100F40000E94DF328DB79EB706960FB6F8949EBF0B
:100F50000FBE8DBF1F910895EF92FF920F931F93C5
:100F6000CF93DF93E82FF0E0E131F10558F4EC5C2A
:100F7000FF4FEE0FFF1F0590F491E02D099490E9CB
:100F800081E92FC090E080E02CC092E983E929C07C
:100F900094E985E926C096E987E923C098E989E9BB
:100FA00020C09AE98BE91DC09CE98DE91AC09EE931
:100FB0008FE917C090EA81EA14C092EA83EA11C06F
:100FC00094EA85EA0EC096EA87EA0BC098EA89EAB5
:100FD00008C09AEA8BEA05C09CEA8DEA02C09EEA44
:100FE0008FEA22EE34E0C92FDD27C7FDD095E82E29
:100FF000FF24E7FCF094613009F04AC08DB79EB73A
:1010000040970FB6F8949EBF0FBE8DBF0DB71EB7A9
:101010000F5F1F4FADB7BEB712963C932E9311973B
:1010200083E091E0F801938382838CEF90E09583D5
:10103000848360910B0570910C0580910D05909152
:101040000E052091FF04309100054091010550915B
:1010500002050E94EC37D80116966D937D938D930F
:101060009C931997809107051A968C931A971B9653
:101070001C921B971D96DC93CE931C971F96FC9297
:10108000EE921E970E94DF32EDB7FEB770961EC03B
:101090008DB79EB708970FB6F8949EBF0FBE8DBF51
:1010A000EDB7FEB73196ADB7BEB712963C932E930F
:1010B000119782E191E093838283D583C483F78281
:1010C000E6820E94DF32EDB7FEB738960FB6F8948D
:1010D000FEBF0FBEEDBFDF91CF911F910F91FF902B
:1010E000EF9008952F923F924F925F926F927F926E
:1010F0008F929F92AF92BF92CF92DF92EF92FF9228
:101100000F931F93DF93CF93CDB7DEB76C970FB6D6
:10111000F894DEBF0FBECDBF8B8F6C8F8091090519
:10112000682F772767FD70959B0177FF04C0222702
:101130003327261B370B2A35310589F48AE590E0E1
:101140000E941239882777FD8095982F0E94B93622
:1011500021EE3AEF43EB52E40E94EC3708C0682FCF
:10116000772767FD7095872F972F0E94B93625E363
:101170003AEF4EE85CEB0E94EC37962EE72E8C019E
:1011800080910A05682F772767FD70959B0177FF8F
:1011900004C022273327261B370B2A35310589F453
:1011A0008AE590E00E941239882777FD8095982F74
:1011B0000E94B93621EE3AEF43EB52E40E94EC373D
:1011C00008C0682F772767FD7095872F972F0E949B
:1011D000B93625E33AEF4EE85CE30E94EC375B0159
:1011E0006C01292D3E2DB901C8010E94C03820E0B4
:1011F00030E044E352E40E94EC370E944F380E94F2
:1012000086367B018C01B501C6010E94C0381B01E6
:101210002C015E010894A11CB11CBA8EA98E1EEB94
:10122000C12E1FEFD12E3701882477FC8094982C93
:10123000B601882777FD8095982F0E94B9369B01CB
:10124000AC01C201B1010E94EC377B018C01C401E9
:10125000B3010E94B9369B01AC01C801B7010E94DD
:10126000513520E030E044E352E40E94513520E063
:1012700030E040E85FE30E9450350E948636E98DF9
:10128000FA8D61937193FA8FE98F4CE050E0C40EB0
:10129000D51E5EE4C516D10459F6EB8CBEEE8B2E3E
:1012A000BFEF9B2EA9E1CA2ED12CCC0EDD1EF5017D
:1012B00020813181C90101978935910568F56EEE6C
:1012C0007FEF0E9412398B010B5F1F4F2B5530406F
:1012D000089DC001099D900D189D900D1124A90134
:1012E000481B590BCA0162E070E00E94123988273E
:1012F00077FD8095982F0E94B9360E944F380E9442
:101300008636AB01672B11F441E050E06C8D600F25
:1013100061508E2D0E94540782E090E0A80EB91E05
:10132000E394AC14BD0419F66C960FB6F894DEBFC6
:101330000FBECDBFCF91DF911F910F91FF90EF9026
:10134000DF90CF90BF90AF909F908F907F906F90E5
:101350005F904F903F902F90089560911705709186
:1013600018058091190590911A0520E030E040E1C0
:1013700052E40E94EC3720E030E044EB53E40E945A
:101380001E360E944F380E9486369B012550304001
:1013900037FF03C09B01215E3F4FADE1B5E0F9018E
:1013A000EE50FC4F80818C932F5F3F4F24323105EC
:1013B00014F020E030E0119685E0A832B80779F704
:1013C0001C9208950F931F93282F462F82EE94E0CE
:1013D000622F0E94652A82EE94E00E943D2B27E155
:1013E00031E080910F05823041F58091100588230E
:1013F000A1F1813019F42DE131E04FC0823019F4B0
:1014000022E231E04AC08330B9F1843009F443C0AC
:101410008530E1F18630A9F18730D1F0883019F4B8
:1014200020E431E03AC0893019F425E431E035C0D8
:101430008A3099F52AE431E030C0813071F580912D
:101440001005882319F42FE431E027C0813019F406
:101450002BE331E022C0823019F428E131E01DC0D5
:10146000853019F424E531E018C0863019F429E5F7
:1014700031E013C08A3019F427E231E00EC08B301E
:1014800019F426E331E009C08C3019F421E331E08E
:1014900004C08F3011F42CE231E08DB79EB708976D
:1014A0000FB6F8949EBF0FBE8DBFEDB7FEB7319655
:1014B00002EE14E0ADB7BEB712961C930E931197CF
:1014C0008EE591E09383828380EE90E09583848320
:1014D000378326830E94DF328DB79EB708960FB6FA
:1014E000F8949EBF0FBE8DBFC8010E94212B1F9193
:1014F0000F9108950F931F93282F462F02EE14E0AB
:10150000C801622F0E94652AC8010E943D2B80916C
:10151000110560E00E94AC07C8010E94212B1F91B9
:101520000F910895EF92FF920F931F93282F462F4C
:1015300002EEE02E04E0F02EC701622F0E94652A21
:10154000C7010E943D2B8DB79EB740970FB6F89408
:101550009EBF0FBE8DBF0DB71EB70F5F1F4FEDB7FC
:10156000FEB7F282E18283E691E0F8019383828301
:1015700087E590E0958384838091120586831782A6
:1015800011861086609113057091140580E090E03B
:101590000E94B7362091030530910405409105055E
:1015A000509106050E94EC37F801628773878487A3
:1015B000958780910805868717860E94DF328DB750
:1015C0009EB740960FB6F8949EBF0FBE8DBFC70161
:1015D0000E94212B1F910F91FF90EF900895282FCB
:1015E000462F82EE94E0622F0E94652A82EE94E0FC
:1015F0000E943D2B6091150570911605882777FD97
:101600008095982F0E94B9362091170530911805C2
:101610004091190550911A050E94503520E030E0A4
:1016200044EB53E40E941E3620E030E040E851E4F1
:101630000E94EC370E944F3820E030E040E85FE342
:101640000E9451350E948636862F60931B0567FFE6
:1016500003C0805F80931B0580911B0560E00E94A2
:10166000AC0782EE94E00E94212B08950F931F9304
:10167000282F462F02EE14E0C801622F0E94652A2F
:10168000C8010E943D2B8DB79EB70C970FB6F894FA
:101690009EBF0FBE8DBFEDB7FEB73196ADB7BEB7DB
:1016A00012961C930E93119782E791E093838283A5
:1016B0008CE791E09583848380ED90E09783868327
:1016C0008DE195E09187808781ED90E09387828717
:1016D0000E94DF328DB79EB70C960FB6F8949EBF6E
:1016E0000FBE8DBFC8010E94212B1F910F9108953D
:1016F0000F931F93282F462F02EE14E0C801622F8C
:101700000E94652AC8010E943D2B8DB79EB70A979B
:101710000FB6F8949EBF0FBE8DBFEDB7FEB73196E2
:10172000ADB7BEB712961C930E9311978AE891E05D
:10173000938382838091170590911805A0911905D4
:10174000B0911A0584839583A683B78380EB90E0DC
:10175000918780870E94DF328DB79EB70A960FB6B9
:10176000F8949EBF0FBE8DBFC8010E94212B1F9110
:101770000F9108950F931F93282F462F02EE14E028
:10178000C801622F0E94652AC8010E943D2B8DB7B7
:101790009EB740970FB6F8949EBF0FBE8DBFEDB7B2
:1017A000FEB73196ADB7BEB712961C930E93119744
:1017B00082E991E09383828383E890E09583848338
:1017C0008091290590912A05A0912B05B0912C05B7
:1017D00086839783A087B18784E890E09387828788
:1017E00080912D0590912E05A0912F05B091300587
:1017F00084879587A687B7870E94DF328DB79EB70B
:1018000040960FB6F8949EBF0FBE8DBFC8010E94D0
:10181000212B1F910F9108950F931F93282F462F6F
:1018200002EE14E0C801622F0E94652AC8010E94DE
:101830003D2B8DB79EB708970FB6F8949EBF0FBE8D
:101840008DBFEDB7FEB73196ADB7BEB712961C93FC
:101850000E93119784EA91E0938382838FE090E066
:101860009583848380913105868317820E94DF32BD
:101870008DB79EB708960FB6F8949EBF0FBE8DBF6A
:10188000C8010E94212B1F910F9108950F931F9360
:10189000282F462F82EE94E0622F0E94652A82EE66
:1018A00094E00E943D2B80913205823018F42AEAA0
:1018B00031E005C08250823010F42DEA31E000D0D2
:1018C00000D000D0EDB7FEB7319602EE14E0ADB710
:1018D000BEB712961C930E93119780EB91E0938301
:1018E0008283358324830E94DF328DB79EB70696AC
:1018F0000FB6F8949EBF0FBE8DBFC8010E94212B6A
:101900001F910F9108950F931F93282F462F02EEDA
:1019100014E0C801622F0E94652AC8010E943D2B75
:101920008DB79EB70C970FB6F8949EBF0FBE8DBFB4
:10193000EDB7FEB73196ADB7BEB712961C930E93B6
:10194000119783EB91E09383828382EE90E09583FD
:1019500084838091330590913405A0913505B09131
:10196000360586839783A087B1878EE890E09387BA
:1019700082870E94DF328DB79EB70C960FB6F8941F
:101980009EBF0FBE8DBFC8010E94212B1F910F91DA
:1019900008950F931F93282F462F02EE14E0C801DD
:1019A000622F0E94652AC8010E943D2B8DB79EB709
:1019B0000A970FB6F8949EBF0FBE8DBFEDB7FEB766
:1019C0003196ADB7BEB712961C930E9311978DEB5F
:1019D00091E09383828380910A05992787FD9095F2
:1019E0009583848380EB90E09783868382EB90E0FD
:1019F000918780870E94DF328DB79EB70A960FB617
:101A0000F8949EBF0FBE8DBFC8010E94212B1F916D
:101A10000F9108950F931F93282F462F02EE14E085
:101A2000C801622F0E94652AC8010E943D2B8DB714
:101A30009EB70A970FB6F8949EBF0FBE8DBFEDB745
:101A4000FEB73196ADB7BEB712961C930E931197A1
:101A50008DEB91E09383828380910905992787FD1F
:101A600090959583848380EB90E09783868381EBC8
:101A700090E0918780870E94DF328DB79EB70A96EB
:101A80000FB6F8949EBF0FBE8DBFC8010E94212BD8
:101A90001F910F910895EF92FF920F931F93282F9C
:101AA000462F82EEE82E84E0F82EC701622F0E94B6
:101AB000652AC7010E943D2B8DB79EB70C970FB6C4
:101AC000F8949EBF0FBE8DBF0DB71EB70F5F1F4F9F
:101AD000EDB7FEB7F282E18285EC91E0F8019383E5
:101AE00082838FE190E095838483609137057091C4
:101AF00038058091390590913A050E94B9362091B8
:101B000003053091040540910505509106050E949A
:101B1000EC37F80166837783808791878091080589
:101B2000828713860E94DF328DB79EB70C960FB660
:101B3000F8949EBF0FBE8DBFC7010E94212B1F913D
:101B40000F91FF90EF9008950F931F93282F462F2A
:101B500002EE14E0C801622F0E94652AC8010E94AB
:101B60003D2B8DB79EB70A970FB6F8949EBF0FBE58
:101B70008DBFEDB7FEB73196ADB7BEB712961C93C9
:101B80000E9311978FEC91E09383828389EB90E021
:101B90009583848380913B05992787FD9095978352
:101BA000868385E290E0918780870E94DF328DB73F
:101BB0009EB70A960FB6F8949EBF0FBE8DBFC801A0
:101BC0000E94212B1F910F9108950F931F93282F8F
:101BD000462F02EE14E0C801622F0E94652AC80158
:101BE0000E943D2B8DB79EB70A970FB6F8949EBF03
:101BF0000FBE8DBFEDB7FEB73196ADB7BEB712962B
:101C00001C930E9311978FEC91E09383828387E866
:101C100090E09583848380913C0590913D05978366
:101C2000868385E290E0918780870E94DF328DB7BE
:101C30009EB70A960FB6F8949EBF0FBE8DBFC8011F
:101C40000E94212B1F910F910895EF92FF920F9305
:101C50001F93282F462F92EEE92E94E0F92EC7010C
:101C6000622F0E94652AC7010E943D2B8DB79EB747
:101C70000C970FB6F8949EBF0FBE8DBF0DB71EB761
:101C80000F5F1F4FEDB7FEB7F282E18289ED91E061
:101C9000F8019383828388EE90E09583848360913A
:101CA000CA027091CB028091CC029091CD0220911A
:101CB000FF043091000540910105509102050E94FA
:101CC000EC37F801668377838087918780910705D9
:101CD000828713860E94DF328DB79EB70C960FB6AF
:101CE000F8949EBF0FBE8DBFC7010E94212B1F918C
:101CF0000F91FF90EF900895EF92FF920F931F9333
:101D0000282F462F32EEE32E34E0F32EC701622F48
:101D10000E94652AC7010E943D2B8DB79EB70C9784
:101D20000FB6F8949EBF0FBE8DBF0DB71EB70F5FE5
:101D30001F4FEDB7FEB7F282E18289ED91E0F80125
:101D40009383828389EE90E095838483609151052B
:101D50007091520580915305909154052091FF0494
:101D60003091000540910105509102050E94EC3729
:101D7000F801668377838087918780910705828742
:101D800013860E94DF328DB79EB70C960FB6F8947B
:101D90009EBF0FBE8DBFC7010E94212B1F910F91C7
:101DA000FF90EF900895EF92FF920F931F93282FCB
:101DB000462F52EEE52E54E0F52EC701622F0E9409
:101DC000652AC7010E943D2B8DB79EB70C970FB6B1
:101DD000F8949EBF0FBE8DBF0DB71EB70F5F1F4F8C
:101DE000EDB7FEB7F282E18285EC91E0F8019383D2
:101DF000828387EE90E0958384836091550570918E
:101E000056058091570590915805209159053091BC
:101E10005A0540915B0550915C050E945035209118
:101E200003053091040540910505509106050E9477
:101E3000EC37F80166837783808791878091080566
:101E4000828713860E94DF328DB79EB70C960FB63D
:101E5000F8949EBF0FBE8DBFC7010E94212B1F911A
:101E60000F91FF90EF9008950F931F93282F462F07
:101E700002EE14E0C801622F0E94652AC8010E9488
:101E80003D2B8DB79EB70C970FB6F8949EBF0FBE33
:101E90008DBFEDB7FEB73196ADB7BEB712961C93A6
:101EA0000E93119789ED91E09383828386E190E010
:101EB0009583848380915D0590915E05A0915F0577
:101EC000B091600586839783A087B18788E890E00A
:101ED000938782870E94DF328DB79EB70C960FB62C
:101EE000F8949EBF0FBE8DBFC8010E94212B1F9189
:101EF0000F910895EF92FF920F931F93282F462F73
:101F000062EEE62E64E0F62EC701622F0E94652A7B
:101F1000C7010E943D2B8DB79EB70C970FB6F89462
:101F20009EBF0FBE8DBF0DB71EB70F5F1F4FEDB722
:101F3000FEB7F282E18285EC91E0F801938382831F
:101F400086EE90E0958384836091550570915605E7
:101F50008091570590915805209103053091040513
:101F600040910505509106050E94EC37F801668303
:101F700077838087918780910805828713860E94E6
:101F8000DF328DB79EB70C960FB6F8949EBF0FBE8A
:101F90008DBFC7010E94212B1F910F91FF90EF90E1
:101FA0000895EF92FF920F931F93282F462F72EE02
:101FB000E72E74E0F72EC701622F0E94652AC70141
:101FC0000E943D2B8DB79EB70C970FB6F8949EBF1D
:101FD0000FBE8DBF0DB71EB70F5F1F4FEDB7FEB71A
:101FE000F282E18283EB91E0F8019383828384EEB5
:101FF00090E09583848360916105709162058827E4
:1020000077FD8095982F0E94B9362AE037ED43E29C
:102010005CE30E94EC37F8016683778380879187C1
:102020008FE890E0938782870E94DF328DB79EB75A
:102030000C960FB6F8949EBF0FBE8DBFC7010E94CD
:10204000212B1F910F91FF90EF900895AF92BF92B7
:10205000CF92DF92EF92FF920F931F93282F462F7C
:1020600012EEA12E14E0B12EC501622F0E94652A46
:10207000C5010E943D2B8DB79EB7865490400FB688
:10208000F8949EBF0FBE8DBF0DB71EB70F5F1F4FD9
:10209000EDB7FEB7B282A18283EE91E0F80193839F
:1020A00082832EE430E03583248382E590E09783B9
:1020B00086838091630590916405A0916505B09138
:1020C000660580879187A287B38740EB50E05587EC
:1020D00044873787268780E590E0918B808B8091BD
:1020E000670590916805A0916905B0916A05828B9A
:1020F000938BA48BB58B578B468B318F208F88E4C5
:1021000090E0938F828F80916B0590916C05958FF5
:10211000848F578F468F84E590E091A380A382E45B
:1021200090E093A382A3809115059091160595A345
:1021300084A357A346A3B1E4CB2ED12CD1A6C0A62D
:10214000A5E4EA2EF12CF3A6E2A660916D0570914C
:102150006E0580916F059091700520910305309177
:10216000040540910505509106050E94EC37F801E1
:1021700064A775A786A797A78091080580AB11AAC9
:1021800088E590E093AB82ABF5AAE4AA8091710553
:1021900090917205A0917305B091740586AB97ABD1
:1021A000A0AFB1AF8DE690E093AF82AFD5AEC4AE35
:1021B000F7AEE6AE60917505709176058091770572
:1021C0009091780520E030E048EC52E40E941E3601
:1021D0002091FF04309100054091010550910205C6
:1021E0000E94EC37005C1F4FF8016193719381935B
:1021F000919380910705808311820E94DF328DB711
:102200009EB78A5B9F4F0FB6F8949EBF0FBE8DBFDF
:10221000C5010E94212B1F910F91FF90EF90DF903D
:10222000CF90BF90AF900895282F462F82EE94E074
:10223000622F0E94652A82EE94E00E943D2B6091FD
:102240008405709185058091860590918705209180
:102250001705309118054091190550911A050E94F3
:10226000503520E030E044EB53E40E941E3620E07D
:1022700030E040E851E40E94EC370E944F3820E003
:1022800030E040E85FE30E9451350E948636862F99
:102290006093880567FF03C0805F80938805809105
:1022A000880561E00E94AC0782EE94E00E94212B39
:1022B00008950F931F93282F462F02EE14E0C801B4
:1022C000622F0E94652AC8010E943D2B00D000D0D9
:1022D00000D0EDB7FEB73196ADB7BEB712961C93DE
:1022E0000E93119780EB91E09383828381E995E0CF
:1022F000958384830E94DF328DB79EB706960FB612
:10230000F8949EBF0FBE8DBFC8010E94212B1F9164
:102310000F910895CF92DF92EF92FF920F931F9348
:10232000282F462F82EE94E0622F0E94652A82EECB
:1023300094E00E943D2B80919A05282F30E0309345
:10234000CF022093CE0280914E05882359F500914B
:102350009B0510E0201B310BB901882777FD809584
:10236000982F0E94B9366B017C0160919C0570E04A
:10237000601B710B882777FD8095982F0E94B936D6
:102380009B01AC01C701B6010E941E3620E030E07F
:1023900048EC52E40E94EC370E9486367093CF02DC
:1023A0006093CE028091CE029091CF028D599F4FC3
:1023B00034F48DE99FEF9093CF028093CE028DB7D6
:1023C0009EB70A970FB6F8949EBF0FBE8DBFEDB7AC
:1023D000FEB7319602EE14E0ADB7BEB712961C936D
:1023E0000E93119787E392E09383828381EE90E0CE
:1023F000958384838091CE029091CF0297838683C8
:1024000085E290E0918780870E94DF328DB79EB78A
:102410000A960FB6F8949EBF0FBE8DBFC8010E94EA
:10242000212B1F910F91FF90EF90DF90CF90089597
:10243000CF93DF93282F462FC2EED4E0CE01622F38
:102440000E94652ACE010E943D2B80911C0581309F
:1024500079F400D000D0EDB7FEB7D283C1838BEF03
:1024600090E0948383830E94CE3210921C050CC0AE
:1024700000D000D0EDB7FEB7D283C18388EF90E0E3
:10248000948383830E94CE320F900F900F900F9011
:1024900082EE94E00E94212BDF91CF9108950F935B
:1024A0001F93282F462F02EE14E0C801622F0E94CE
:1024B000652AC8010E943D2B00D000D0EDB7FEB7C1
:1024C000128301838EEF90E0948383830E94CE3247
:1024D0000F900F900F900F90C8010E94212B1F9119
:1024E0000F910895CF92DF92EF92FF920F931F9377
:1024F0007C01D62EC72E02EE14E0C8016E2D4D2DA4
:102500000E94652AC8010E943D2B00D000D0EDB783
:10251000FEB71283018384E791E0948383830E9452
:10252000CE32EDB7FEB71283018384E691E0948347
:1025300083830E94CE32EDB7FEB71283018384E518
:1025400091E0948383830E94CE32EDB7FEB712836D
:10255000018384E491E0948383830E94CE32EDB7BB
:10256000FEB71283018385E391E0948383830E9405
:10257000CE320F900F900F900F90C8010E94212B28
:10258000C70101966D2D7C2D0E9472081F910F913D
:10259000FF90EF90DF90CF9008950F931F93282F17
:1025A000462F02EE14E0C801622F0E94652AC8017E
:1025B0000E943D2B00D000D0EDB7FEB712830183FF
:1025C00084E891E0948383830E94CE320F900F9031
:1025D0000F900F90C8010E94212B1F910F91089519
:1025E0000F931F9302EE14E0C80167E044E00E94DD
:1025F000652AC8010E943D2B00D000D0EDB7FEB780
:10260000128301838AEC91E0948383830E94CE320B
:102610000F900F900F900F90C8010E94212B1F91D7
:102620000F910895EF92FF920F931F93F82EE62ECD
:102630000E94F01202EE14E0C8016F2D4E2D0E9490
:10264000652AC8010E943D2B00D000D0EDB7FEB72F
:102650001283018383E191E0948383830E94CE32CD
:102660000F900F900F900F90C8010E94212B1F9187
:102670000F91FF90EF900895EF92FF920F931F93A9
:10268000282F462F02EEE02E04E0F02EC701622F25
:102690000E94652AC7010E943D2B0E946B3428EEE0
:1026A00033E040E050E00E942539CA01B9010E94A0
:1026B000B7366093C6027093C7028093C8029093A6
:1026C000C9020E9486368B019C018DB79EB70C977C
:1026D0000FB6F8949EBF0FBE8DBFEDB7FEB7319613
:1026E000ADB7BEB71296FC92EE9211978FE392E0CF
:1026F0009383828383EB90E095838483C8016CE3AA
:1027000070E00E941239CB016CE370E00E94123934
:10271000978386838AE390E091878087C8016CE382
:1027200070E00E941239938782870E94DF328DB752
:102730009EB70C960FB6F8949EBF0FBE8DBFC70113
:102740000E94212B1F910F91FF90EF9008952F92DF
:102750003F924F925F926F927F928F929F92AF9231
:10276000BF92CF92DF92EF92FF920F931F93DF936E
:10277000CF93CDB7DEB76B970FB6F894DEBF0FBE21
:10278000CDBF282F462F82EE94E0622F0E94652A4B
:1027900082EE94E00E943D2B0E946B3420913E0516
:1027A00030913F054091400550914105261737076C
:1027B0004807590708F09BC180914205882391F092
:1027C000809343051092420581E0809344050E9466
:1027D0006B3460934505709346058093470590934D
:1027E000480521C10E946B3460517742804090407F
:1027F0002091450530914605409147055091480587
:10280000261737074807590710F41092440580919E
:102810004305E82EFF24FA82E982F0903205FD8616
:1028200090904205A090CA02B090CB02C090CC021A
:10283000D090CD024090FF045090000560900105BB
:10284000709002052091490530E040914A05609161
:10285000330570913405809135059091360569876F
:102860007A878B879C8790914B0580913B05A82F99
:10287000BB27A7FDB095B887AF8380914C05E82FA3
:10288000F0E0FE83ED832090CE023090CF02809165
:102890004D05E82EFF24FC82EB8280904E050981D5
:1028A0001A811B8F0A8FE42EFF2400E010E0EE86D1
:1028B000FF86088B198B492F50E060E070E04A8B4F
:1028C0005B8B6C8B7D8BB901882777FD8095982F6A
:1028D0006E8B7F8B888F998FA1C08A8D9B8D01967F
:1028E0009B8F8A8F06972CF0A1E0B0E0BB8FAA8F58
:1028F0001BC0EA8DFB8DE330F10509F441C0E430E3
:10290000F1053CF4E130F10579F0329709F07FC030
:1029100012C00A8D1B8D0430110509F44AC0053020
:10292000110509F074C065C01D85123008F06FC034
:10293000992493946CC0C601B501A30192010E9431
:10294000EC377B018C016E897F89888D998D0E947F
:10295000B9369B01AC01C801B7010E941736882324
:102960000CF055C0C601B50129E23CE54FE85FE334
:102970000E94E13718160CF04AC052E0952E47C06D
:10298000C601B501A30192010E94EC377B018C01C5
:102990006E857F85888999890E94B7369B01AC0135
:1029A000C801B7010E94E13718168CF543E0942E58
:1029B0002EC06A897B898C899D890E94B73620E068
:1029C00030E040E251E40E941E369B01AC01698573
:1029D0007A858B859C850E94173687FD07C02F81DD
:1029E00038854D815E81241735078CF434E0932EB1
:1029F0000EC06B817C81261637064CF47DE92716C4
:102A00007FEF370621F0882011F425E0922E8A8D81
:102A10009B8DA981BA818A179B0719F0992009F427
:102A20005CCF909242050E946B3468517C4F8F4F6F
:102A30009F4F60933E0570933F05809340059093B0
:102A4000410580914405813051F480914F058130DA
:102A500021F482EE94E00E948A2B10924F0580911F
:102A60005005882319F425E532E023C08091420502
:102A70008230A1F0833028F4882351F08130C9F4EA
:102A80000AC0843089F0843060F0853091F40FC042
:102A900022E632E00EC02FE632E00BC02CE732E037
:102AA00008C029E832E005C026E932E002C023EA86
:102AB00032E000D000D000D0EDB7FEB7319682EE04
:102AC00094E0ADB7BEB712969C938E93119780EBAE
:102AD00091E093838283358324830E94DF32EDB7B4
:102AE000FEB736960FB6F894FEBF0FBEEDBF82EE6E
:102AF00094E00E94212B6B960FB6F894DEBF0FBEB8
:102B0000CDBFCF91DF911F910F91FF90EF90DF909C
:102B1000CF90BF90AF909F908F907F906F905F907D
:102B20004F903F902F900895EF92FF920F931F9335
:102B300080914F05882309F44DC10E946B34615682
:102B40007A4E8040904008F445C180910F05813055
:102B500031F4809110058B3009F03CC108C08230FF
:102B600009F038C180911005863009F033C1109208
:102B70004F0582EE94E00E948A2B49C180910F0597
:102B8000813041F4809110058B3009F440C18130CF
:102B900051F43DC1823009F03AC180911005865050
:102BA000823008F434C19091100580917A0589171C
:102BB000A1F190937A050E946B3460937B0570932A
:102BC0007C0580937D0590937E0590917A05809198
:102BD000D002981711F580914F05813091F0813026
:102BE00018F08230B1F413C011E010934F050E9429
:102BF0006B3461567A4E8040904030F410937F05DC
:102C000008C082E080934F0510927F0502C01092A9
:102C10004F0582EE94E00E948A2B0E946B34209133
:102C20007B0530917C0540917D0550917E05621BAE
:102C3000730B840B950B615D77408040904008F4E6
:102C4000E6C0809110058093D002E1C0853029F460
:102C50008091D1029091D20214C0863029F48091E3
:102C6000D3029091D4020DC0873029F48091D5020F
:102C70009091D60206C0883041F48091D70290919D
:102C8000D8029093810580938005809182052091E0
:102C9000800530918105882309F04DC087E02930F7
:102CA0003807C8F00E946B3461567A4E80409040DD
:102CB00020F481E080937F050CC080917F058130F6
:102CC00041F080914405813021F082EE94E00E9431
:102CD0008A2B82E02DC0B4E0203B3B0768F4809152
:102CE0004F05882349F010927F0582EE94E00E9400
:102CF0008A2B10924F058BC0205B344029553240FF
:102D000008F085C080918305863009F480C08091E9
:102D10004F05813009F47BC080914405813009F46E
:102D200076C010927F0582EE94E00E948A2B81E0AB
:102D300080934F056CC0215B344008F468C00E944A
:102D40006B3461567A4E8040904008F049C08091C3
:102D50007F05813009F444C0E0907B05F0907C054C
:102D600000917D0510917E0588EE93E0A0E0B0E033
:102D7000E80EF91E0A1F1B1F0E946B34E616F706A9
:102D80000807190708F043C081E080937F0517C04A
:102D900010927F0582EE94E00E948A2B80914F056D
:102DA000823019F410924F0503C08F5F80934F0556
:102DB00080914F05823018F082E080934F050E9489
:102DC0006B3460937B0570937C0580937D059093B5
:102DD0007E051DC080917905843009F037CFCECEB5
:102DE000E0907B05F0907C0500917D0510917E05BB
:102DF00088EE93E0A0E0B0E0E80EF91E0A1F1B1F6A
:102E00000E946B34E616F7060807190708F21F91AF
:102E10000F91FF90EF90089582EE94E00E948A2B2C
:102E20000E94F0120E949A060895CF93DF93AC019E
:102E3000E0918905F0918A0520918B0530918C05F0
:102E4000C9018C599F4F8E179F0714F0EA0102C0E9
:102E5000EA01219724563040E217F3070CF421963B
:102E6000842F90E0C817D90749F080918305882303
:102E700029F08EE496E04C2F0E94F732CE01DF91CC
:102E8000CF910895EF92FF920F931F930E946B349E
:102E900020913E0530913F054091400550914105FC
:102EA000261737074807590708F03BC10E946B34C3
:102EB0006C507E4F8F4F9F4F60933E0570933F0540
:102EC000809340059093410582EE94E00E948A2B06
:102ED00082EE94E065E047E00E94652A82EE94E08D
:102EE0000E943D2B80918B0590918C05892BB1F42C
:102EF00080918D0590918E05892B81F480918905B3
:102F000090918A0590938C0580938B0580918F0515
:102F10009091900590938E0580938D0520918F055B
:102F20003091900540918D0550918E05C9018456D0
:102F300090404817590724F4809183058F5F08C09B
:102F40002C593F4F241735072CF48091830581506D
:102F5000809383058091830587FF03C010928305CA
:102F600005C083301CF082E0809383058091830547
:102F7000813009F443C0823009F47DC0882309F010
:102F8000D0C000D000D002EE14E0ADB7BEB71296AC
:102F90001C930E93119781EB91E014969C938E9362
:102FA00013970E94CE3200D000D0EDB7FEB7319615
:102FB000ADB7BEB712961C930E93119780EB92E0BB
:102FC0009383828380914A058483158280910705CB
:102FD000868317820E94DF32EDB7FEB738960FB6B0
:102FE000F894FEBF0FBEEDBF80914A0590E06CE7FC
:102FF00073E00E94151780934A0593C000D000D05B
:1030000002EE14E0ADB7BEB712961C930E93119763
:103010008FE991E014969C938E9313970E94CE3281
:1030200000D000D0EDB7FEB73196ADB7BEB712965F
:103030001C930E93119780EB92E09383828380918F
:1030400049058483158280910705868317820E9433
:10305000DF32EDB7FEB738960FB6F894FEBF0FBE5D
:10306000EDBF8091490590E06EE773E00E9415176F
:103070008093490556C000D000D062EEE62E64E091
:10308000F62EADB7BEB71296FC92EE9211978EE86F
:1030900091E014969C938E9313970E94CE32EDB7D5
:1030A000FEB738970FB6F894FEBF0FBEEDBF0DB751
:1030B0001EB70F5F1F4FF282E18288EB92E0D801CA
:1030C00013969C938E93129760914B0570E080E06D
:1030D00090E00E94B73620E030E040E251E40E94E8
:1030E0001E36F801648375838683978386E790E0B4
:1030F0009187808780E290E0938782870E94DF3209
:103100008DB79EB70C960FB6F8949EBF0FBE8DBFBD
:1031100080914B0590E060E873E00E941517809362
:103120004B0582EE94E00E94212B1F910F91FF909E
:10313000EF900895EF92FF920F931F930E946B34CC
:103140000E94B7367B018C0160919D0570919E05B0
:1031500080919F059091A00520E030E849E055E47A
:103160000E9451359B01AC01C801B7010E9417367E
:1031700088230CF0A7C280917905843010F00E945A
:10318000941580917F05882309F099C280914F059D
:10319000823009F475C2A82FB0E0FD01E95BFB4F56
:1031A000808180FF0BC0FD01E555FB4F6081A75575
:1031B000BB4F8C9190E070E00E94A71380914F0567
:1031C000A82FB0E0FD01EF5BFB4F808180FF0BC0BB
:1031D000FD01E55BFB4F6081A75BBB4F8C9190E0ED
:1031E00070E00E94CD1280914F05A82FB0E0FD0144
:1031F000EF5BFB4F808181FF0BC0FD01E15BFB4F6B
:103200006081A35BBB4F8C9190E070E00E940A0D3F
:1032100080914F05A82FB0E0FD01EF5BFB4F80814F
:1032200082FF0BC0FD01ED5AFB4F6081AF5ABB4FCF
:103230008C9190E070E00E94C90C80914F05A82FFE
:10324000B0E0FD01EF5BFB4F808183FF0BC0FD0110
:10325000E95AFB4F6081AB5ABB4F8C9190E070E014
:103260000E94830C80914F05A82FB0E0FD01EF5B19
:10327000FB4F808185FF0BC0FD01E55AFB4F60814C
:10328000A75ABB4F8C9190E070E00E940C0C80918B
:103290004F05A82FB0E0FD01EF5BFB4F808186FF5B
:1032A0000BC0FD01E15AFB4F6081A35ABB4F8C91CB
:1032B00090E070E00E94460C80914F05A82FB0E08E
:1032C000FD01EF5BFB4F808187FF0BC0FD01ED59D6
:1032D000FB4F6081AF59BB4F8C9190E070E00E9432
:1032E000BA0B80914F05A82FB0E0FD01EF5BFB4FBB
:1032F000808184FF0BC0FD01E959FB4F6081AB5910
:10330000BB4F8C9190E070E00E94A40D80914F051E
:10331000A82FB0E0FD01ED5BFB4F808180FF0BC06B
:10332000FD01E559FB4F6081A759BB4F8C9190E09F
:1033300070E00E94360B80914F05A82FB0E0FD0190
:10334000ED5BFB4F808181FF0BC0FD01E159FB4F1D
:103350006081A359BB4F8C9190E070E00E94780B84
:1033600080914F05A82FB0E0FD01ED5BFB4F808100
:1033700082FF0BC0FD01ED58FB4F6081AF58BB4F82
:103380008C9190E070E00E9418128091A10581302C
:1033900051F580914F05A82FB0E0FD01ED5BFB4F8B
:1033A000808184FF0BC0FD01E558FB4F6081A75869
:1033B000BB4F8C9190E070E00E944B0D80914F05C7
:1033C000A82FB0E0FD01ED5BFB4F808183FF0BC0B8
:1033D000FD01E958FB4F6081AB58BB4F8C9190E0E9
:1033E00070E00E947A0A80914F05A82FB0E0FD019D
:1033F000ED5BFB4F808187FF0BC0FD01E957FB4F61
:103400006081AB57BB4F8C9190E070E00E943C1301
:1034100080914F05A82FB0E0FD01ED5BFB4F80814F
:1034200085FF0BC0FD01E158FB4F6081A358BB4FE6
:103430008C9190E070E00E94EF0A80914F05A82FD8
:10344000B0E0FD01ED5BFB4F808186FF0BC0FD010D
:10345000ED57FB4F6081AF57BB4F8C9190E070E010
:103460000E94920A80914F05A82FB0E0FD01EB5B0E
:10347000FB4F808182FF0BC0FD01E157FB4F608154
:10348000A357BB4F8C9190E070E00E947A0F80911F
:103490004F05A82FB0E0FD01EB5BFB4F808187FF5C
:1034A0000BC0FD01ED56FB4F6081AF56BB4F8C91B9
:1034B00090E070E00E94D30E80914F05A82FB0E0FD
:1034C000FD01EB5BFB4F808183FF0BC0FD01E956E3
:1034D000FB4F6081AB56BB4F8C9190E070E00E9437
:1034E0007C0E80914F05A82FB0E0FD01EB5BFB4FF8
:1034F000808181FF0BC0FD01E556FB4F6081A7561F
:10350000BB4F8C9190E070E00E94250E80914F059A
:10351000A82FB0E0FD01EB5BFB4F808184FF0BC067
:10352000FD01E156FB4F6081A356BB4F8C9190E0AB
:1035300070E00E94E50D80914F05A82FB0E0FD01DD
:10354000EB5BFB4F808185FF0BC0FD01ED55FB4F11
:103550006081AF55BB4F8C9190E070E00E94E20912
:1035600080914F05A82FB0E0FD01EB5BFB4F808100
:1035700086FF0BC0FD01E955FB4F6081AB55BB4F8A
:103580008C9190E070E00E94721280914F05A82FFC
:10359000B0E0FD01EB5BFB4F808180FF0BC0FD01C4
:1035A000E557FB4F6081A757BB4F8C9190E070E0CF
:1035B0000E94D10F80914F05A82FB0E0FD01E95B7B
:1035C000FB4F808182FF0BC0FD01E155FB4F608105
:1035D000A355BB4F8C9190E070E00E941411809134
:1035E0004F05A82FB0E0FD01E95BFB4F808183FF11
:1035F0000BC0FD01ED54FB4F6081AF54BB4F8C916C
:1036000090E070E00E94340F80914F05A82FB0E049
:10361000FD01E95BFB4F808184FF0BC0FD01E95494
:10362000FB4F6081AB54BB4F8C9190E070E00E94E7
:10363000261080914F05A82FB0E0FD01E95BFB4FFC
:10364000808186FF0BC0FD01E154FB4F6081A354D4
:10365000BB4F8C9190E070E00E948A1180914F05E1
:10366000A82FB0E0FD01E95BFB4F808185FF37C0EB
:10367000FD01ED53FB4F6081AF53BB4F8C911AC0DE
:103680008091470480FF08C06091AB048091A90439
:1036900090E070E00E94A7138091470485FF1FC04F
:1036A000E0914F05F0E0DF01AD53BB4F6C91EF535C
:1036B000FB4F808190E070E00E94591110C00E9481
:1036C00042170DC082EE94E00E948A2B81E0809325
:1036D000D90285E090E06AE070E00E9412131F9129
:1036E0000F91FF90EF900895CF93DF93EC0182EE5E
:1036F00094E00E94612AC817D9073CF082EE94E05A
:103700000E94562A892B09F42397CE01DF91CF918D
:103710000895EF92FF920F931F93CF93DF93009141
:103720004F0510E08AEF90E0089F7001099FF00CB0
:10373000189FF00C1124C7010E944E07F801EF5B9F
:10374000FB4F882319F08081816002C080818E7FC9
:10375000808380914F05C82FD0E0C70102960E9458
:103760004E07C75BDB4F888380914F05C82FD0E0A1
:10377000C70104960E944E0790E00E94741BC55B2F
:10378000DB4F888300914F0510E0C70188569F4F9B
:103790000E944E07F801EF5BFB4F882319F08081F0
:1037A000806102C080818F7E808380914F05C82F09
:1037B000D0E0C70186569F4F0E944E07CB59DB4F82
:1037C000888380914F05C82FD0E0C70184569F4F52
:1037D0000E944E0790E00E94741BC959DB4F8883FA
:1037E00000914F0510E0C70106960E944E07F801B0
:1037F000EF5BFB4F882319F08081826002C08081DB
:103800008D7F808380914F05C82FD0E0C701089637
:103810000E944E07C35BDB4F888380914F05C82F02
:10382000D0E0C7010A960E944E0790E00E94741BE8
:10383000C15BDB4F888300914F0510E0C7010C96F8
:103840000E944E07F801EF5BFB4F882319F080813F
:10385000846002C080818B7F808380914F05C82F58
:10386000D0E0C7010E960E944E07CF5ADB4F8883E7
:1038700080914F05C82FD0E0C70140960E944E07A7
:1038800090E00E94741BCD5ADB4F888300914F0556
:1038900010E0C70142960E944E07F801EF5BFB4F14
:1038A000882319F08081886002C08081877F8083AF
:1038B00080914F05C82FD0E0C70144960E944E0763
:1038C000CB5ADB4F888380914F05C82FD0E0C701CA
:1038D00046960E944E0790E00E94741BC95ADB4F27
:1038E000888300914F0510E0C7014E960E944E0755
:1038F000F801EF5BFB4F882319F08081806202C0E2
:1039000080818F7D808380914F05C82FD0E0C701D3
:1039100080960E944E07C75ADB4F888380914F05DF
:10392000C82FD0E0C70182960E944E0790E00E9407
:10393000741BC55ADB4F888300914F0510E0C70107
:1039400084960E944E07F801EF5BFB4F882319F025
:103950008081806402C080818F7B808380914F054D
:10396000C82FD0E0C70186960E944E07C35ADB4F8E
:10397000888380914F05C82FD0E0C70188960E94A8
:103980004E0790E00E94741BC15ADB4F8883009160
:103990004F0510E0C7018A960E944E07F801EF5BC1
:1039A000FB4F882319F08081806802C080818F7767
:1039B000808380914F05C82FD0E0C7018C960E946C
:1039C0004E07CF59DB4F888380914F05C82FD0E039
:1039D000C7018E960E944E0790E00E94741BCD593D
:1039E000DB4F888300914F0510E0C701C0960E940D
:1039F0004E07F801ED5BFB4F882319F08081816051
:103A000002C080818E7F808380914F05C82FD0E0D7
:103A1000C701C2960E944E07C759DB4F8883809129
:103A20004F05C82FD0E0C701C4960E944E0790E012
:103A30000E94741BC559DB4F888300914F0510E02D
:103A4000C701C6960E944E07F801ED5BFB4F882325
:103A500019F08081826002C080818D7F8083809197
:103A60004F05C82FD0E0C701C8960E944E07C35922
:103A7000DB4F888380914F05C82FD0E0C701CA96DD
:103A80000E944E0790E00E94741BC159DB4F88834F
:103A900000914F0510E0C701CC960E944E07F80137
:103AA000ED5BFB4F882319F08081846002C0808128
:103AB0008B7F808380914F05C82FD0E0C701CE96C1
:103AC0000E944E07CF58DB4F888380914F05C82F47
:103AD000D0E0C701805C9F4F0E944E0790E00E949B
:103AE000741BCD58DB4F888300914F0510E0C70150
:103AF000885B9F4F0E944E07F801ED5BFB4F8823C8
:103B000019F08081806102C080818F7E80838091E6
:103B10004F05C82FD0E0C701865B9F4F0E944E071C
:103B2000C758DB4F888380914F05C82FD0E0C7016D
:103B3000845B9F4F0E944E0790E00E94741BC55803
:103B4000DB4F888300914F0510E0C7018E5B9F4FCC
:103B50000E944E07F801ED5BFB4F882319F080812E
:103B6000886002C08081877F808380914F05C82F45
:103B7000D0E0C7018C5B9F4F0E944E07CB58DB4FB4
:103B8000888380914F05C82FD0E0C7018A5B9F4F83
:103B90000E944E0790E00E94741BC958DB4F888337
:103BA00000914F0510E0C701805B9F4F0E944E07B8
:103BB000F801ED5BFB4F882319F08081806202C021
:103BC00080818F7D808380914F05C82FD0E0C70111
:103BD0008E5A9F4F0E944E07C358DB4F88838091B7
:103BE0004F05C82FD0E0C7018C5A9F4F0E944E0747
:103BF00090E00E94741BC158DB4F888300914F05F1
:103C000010E0C7018A5A9F4F0E944E07F801ED5BF2
:103C1000FB4F882319F08081806402C080818F7BF4
:103C2000808380914F05C82FD0E0C701885A9F4FED
:103C30000E944E07CF57DB4F888380914F05C82FD6
:103C4000D0E0C701865A9F4F0E944E0790E00E9425
:103C5000741BCD57DB4F888300914F0510E0C701DF
:103C600082569F4F0E944E07F801ED5BFB4F882361
:103C700019F08081806802C080818F778083809175
:103C80004F05C82FD0E0C70180569F4F0E944E07B6
:103C9000CB57DB4F888380914F05C82FD0E0C701F9
:103CA0008E559F4F0E944E0790E00E94741BC9578B
:103CB000DB4F888300914F0510E0C7018E599F4F5D
:103CC0000E944E07F801EB5BFB4F882319F08081BF
:103CD000816002C080818E7F808380914F05C82FD4
:103CE000D0E0C7018C599F4F0E944E07C757DB4F4A
:103CF000888380914F05C82FD0E0C7018A599F4F14
:103D00000E944E0790E00E94741BC557DB4F8883CA
:103D100000914F0510E0C70182599F4F0E944E0746
:103D2000F801EB5BFB4F882319F08081846002C0AF
:103D300080818B7F808380914F05C82FD0E0C701A1
:103D400080599F4F0E944E07C357DB4F8883809155
:103D50004F05C82FD0E0C7018E589F4F0E944E07D5
:103D600090E00E94741BC157DB4F888300914F0580
:103D700010E0C70184579F4F0E944E07F801EB5B8C
:103D8000FB4F882319F08081806802C080818F7783
:103D9000808380914F05C82FD0E0C70182579F4F85
:103DA0000E944E07CF56DB4F888380914F05C82F66
:103DB000D0E0C70180579F4F0E944E0790E00E94BD
:103DC000741BCD56DB4F888300914F0510E0C7016F
:103DD0008E569F4F0E944E07F801EB5BFB4F8823E6
:103DE00019F08081826002C080818D7F8083809104
:103DF0004F05C82FD0E0C7018C569F4F0E944E0739
:103E0000C756DB4F888380914F05C82FD0E0C7018C
:103E10008A569F4F0E944E0790E00E94741BC55621
:103E2000DB4F888300914F0510E0C7018C589F4FEE
:103E30000E944E07F801EB5BFB4F882319F080814D
:103E4000886002C08081877F808380914F05C82F62
:103E5000D0E0C7018A589F4F0E944E07CB56DB4FD8
:103E6000888380914F05C82FD0E0C70188589F4FA5
:103E70000E944E0790E00E94741BC956DB4F888356
:103E800000914F0510E0C70186589F4F0E944E07D2
:103E9000F801EB5BFB4F882319F08081806102C041
:103EA00080818F7E808380914F05C82FD0E0C7012D
:103EB00084589F4F0E944E07C356DB4F88838091E2
:103EC0004F05C82FD0E0C70182589F4F0E944E0770
:103ED00090E00E94741BC156DB4F888300914F0510
:103EE00010E0C70180589F4F0E944E07F801EB5B1E
:103EF000FB4F882319F08081806202C080818F7D12
:103F0000808380914F05C82FD0E0C7018E579F4F07
:103F10000E944E07CF55DB4F888380914F05C82FF5
:103F2000D0E0C7018C579F4F0E944E0790E00E943F
:103F3000741BCD55DB4F888300914F0510E0C701FE
:103F40008A579F4F0E944E07F801EB5BFB4F882377
:103F500019F08081806402C080818F7B8083809192
:103F60004F05C82FD0E0C70188579F4F0E944E07CA
:103F7000CB55DB4F888380914F05C82FD0E0C70118
:103F800086579F4F0E944E0790E00E94741BC955B0
:103F9000DB4F888300914F0510E0C7018C559F4F80
:103FA0000E944E07F801E95BFB4F882319F08081DE
:103FB000816002C080818E7F808380914F05C82FF1
:103FC000D0E0C7018A559F4F0E944E07C755DB4F6F
:103FD000888380914F05C82FD0E0C70188559F4F37
:103FE0000E944E0790E00E94741BC555DB4F8883EA
:103FF00000914F0510E0C70180559F4F0E944E076A
:10400000F801E95BFB4F882319F08081846002C0CE
:1040100080818B7F808380914F05C82FD0E0C701BE
:104020008E549F4F0E944E07C355DB4F888380916B
:104030004F05C82FD0E0C7018C549F4F0E944E07F8
:1040400090E00E94741BC155DB4F888300914F059F
:1040500010E0C7018A549F4F0E944E07F801E95BA8
:10406000FB4F882319F08081886002C08081877FA0
:10407000808380914F05C82FD0E0C70188549F4F9F
:104080000E944E07CF54DB4F888380914F05C82F85
:10409000D0E0C70186549F4F0E944E0790E00E94D7
:1040A000741BCD54DB4F888300914F0510E0C7018E
:1040B00084549F4F0E944E07F801E95BFB4F882311
:1040C00019F08081806102C080818F7E8083809121
:1040D0004F05C82FD0E0C70182549F4F0E944E0762
:1040E000CB54DB4F888380914F05C82FD0E0C701A8
:1040F00080549F4F0E944E0790E00E94741BC95449
:10410000DB4F888300914F0510E0C7018E539F4F0E
:104110000E944E07F801E95BFB4F882319F080816C
:10412000806802C080818F77808380914F05C82F7F
:10413000D0E0C7018C539F4F0E944E07C754DB4FFE
:10414000888380914F05C82FD0E0C7018A539F4FC5
:104150000E944E0790E00E94741BC554DB4F888379
:1041600000914F0510E0C70188539F4F0E944E07F2
:10417000F801E95BFB4F882319F08081806202C05F
:1041800080818F7D808380914F05C82FD0E0C7014B
:1041900086539F4F0E944E07CF53DB4F88838091F9
:1041A0004F05C82FD0E0C70184539F4F0E944E0790
:1041B00090E00E94741BCD53DB4F8883DF91CF9139
:1041C0001F910F91FF90EF9008958F929F92AF9261
:1041D000BF92CF92DF92FF920F931F93CF93DF9303
:1041E000F62E4901C82EDD248601000F111F58014B
:1041F000AC0CBD1CE501CC0FDD1FCC0FDD1FCE5D6F
:10420000D94F18828B819C818430910509F48EC02E
:10421000853091055CF48230910509F443C0833008
:1042200091050CF0BFC09923C4F44FC287309105AB
:1042300009F443C18830910544F48530910509F4AF
:10424000DEC0069709F041C207C18830910509F424
:104250007AC1099709F039C2E7C18EEF681709F0F2
:1042600034C282E090E09C838B8380E790E0C89E1C
:10427000D001C99EB00DD89EB00D1124AE54BA4FD6
:1042800013961C92139788E390E0C89EF001C99E94
:10429000F00DD89EF00D1124EE0FFF1FEC54FA4FD5
:1042A0006083A4C1E5E6E61788F489818F5F89837E
:1042B000F501EE0FFF1FEE0FFF1FEC5DF94F808140
:1042C0008F5F8083188281E090E02DC080E790E0CE
:1042D000C89EF001C99EF00DD89EF00D1124EE5439
:1042E000FA4F63831D8280818627282F2295207FA5
:1042F000282730E0522F4427C90163E0880F991F17
:104300006A95E1F748275927818190E04827592786
:1043100084E0359527958A95E1F742275327518305
:10432000408384E090E09C838B83CFC18CE190E05C
:10433000C89EF001C99EF00DD89EF00D1124EE0F1D
:10434000FF1FEE0FFF1FEA54FA4F608380E790E0F3
:10435000C89EF001C99EF00DD89EF00D1124EE54B8
:10436000FA4F80818627282F2295207F282730E04A
:10437000522F4427C901B3E0880F991FBA95E1F77E
:1043800048275927818190E048275927A4E035958F
:104390002795AA95E1F7422753275183408383E06D
:1043A00090E0C1CF80E790E0C89EF001C99EF00D7B
:1043B000D89EF00D1124EE54FA4F65838081862734
:1043C000282F2295207F282730E0522F4427C9012B
:1043D00063E0880F991F6A95E1F748275927818183
:1043E00090E04827592704E0359527950A95E1F78D
:1043F000422753275183408385E090E094CF80E7A4
:1044000090E0C89EF001C99EF00DD89EF00D1124D9
:10441000EE54FA4F668380818627282F2295207FCD
:10442000282730E0522F4427C901B3E0880F991F95
:10443000BA95E1F748275927818190E04827592705
:10444000A4E035952795AA95E1F742275327518394
:10445000408386E090E067CF80E790E0C89EF0015F
:10446000C99EF00DD89EF00D1124EE54FA4F6783CB
:1044700080818627282F2295207F282730E0522F01
:104480004427C90163E0880F991F6A95E1F748271F
:104490005927818190E04827592794E03595279541
:1044A0009A95E1F7422753275183408383818823DC
:1044B00009F446C087E090E036CF6D81F80183E0D3
:1044C000EE0FFF1F8A95E1F7E01BF10B319603E039
:1044D000EE0FFF1F0A95E1F7E60FF11DEE54FA4FBC
:1044E000F0826F5F6D8380E790E0C89EF001C99E07
:1044F000F00DD89EF00D1124EE54FA4F80818F25D7
:10450000282F2295207F282730E0522F4427C901E9
:10451000B3E0880F991FBA95E1F7482759278181A1
:1045200090E048275927A4E035952795AA95E1F70B
:1045300042275327518340838381681709F0C5C000
:1045400088E090E0F0CE80E790E0C89ED001C99E60
:10455000B00DD89EB00D1124AE54BA4F9C91179651
:10456000EC911797F0E0E052FD4F80818927482FAA
:104570004295407F482750E0342F2227CA0173E03C
:10458000880F991F7A95E1F72827392711968C9182
:10459000119790E02827392764E0559547956A954B
:1045A000E1F72427352711963C932E938F2D90E029
:1045B000307082179307F9F0F501EE0FFF1FEE0F31
:1045C000FF1FEC5DF94F80818F5F8083188281E04F
:1045D00090E09C838B83FEEFFF1609F076C082E0AB
:1045E00090E09C838B8313961C9213978FEF9FEF21
:1045F0008D939C936AC089E090E09C838B83F80143
:1046000083E0EE0FFF1F8A95E1F7E01BF10B319677
:1046100013E0EE0FFF1F1A95E1F78D81E80FF11DF2
:10462000EE54FA4FF08251C0262F30E080E790E040
:10463000C89EB001C99E700DD89E700D11246E5495
:104640007A4FFB01818190E028173907E9F0F501E5
:10465000EE0FFF1FEE0FFF1FEC5DF94F80818F5FA4
:104660008083188281E090E09C838B83FEEFFF16AD
:1046700061F582E090E09C838B83EB011B828FEFDE
:104680009FEF9983888321C081E0888381E090E057
:104690009C838B83F801A3E0EE0FFF1FAA95E1F73F
:1046A000E01BF10B319633E0EE0FFF1F3A95E1F777
:1046B0008D81E80FF11DED54FA4FF082DA01FB0114
:1046C00080E701900D928150E1F7D601AA0FBB1F40
:1046D000AC0DBD1DAA0FBB1FAA0FBB1FAE5DB94F0E
:1046E0008C91813069F58CE190E0C89EF001C99E03
:1046F000F00DD89EF00D1124EE0FFF1FEE0FFF1FDF
:10470000EA54FA4F808116968C93169718968D91DD
:104710009C911997892B21F41B961C921E921A9733
:10472000F601EE0FFF1FEC0DFD1DEE0FFF1FEE0F4C
:10473000FF1FEE5DF94F80859185019691878087F7
:10474000F601EE0FFF1FEC0DFD1DEE0FFF1FEE0F2C
:10475000FF1FDF01AE5DB94F16968C9116978F5FE4
:10476000E4018E8318968D919C911997998788877B
:10477000EC5DF94F80818A871B8610828C91DF91D6
:10478000CF911F910F91FF90DF90CF90BF90AF908E
:104790009F908F9008954F925F927F928F929F92F9
:1047A000AF92BF92CF92DF92EF92FF920F931F933F
:1047B000DF93CF93CDB7DEB7C854D0400FB6F8948F
:1047C000DEBF0FBECDBF02EE14E0C8010E948A2BEF
:1047D000C80166E049E00E94652AC8010E943D2B9D
:1047E00000D000D0EDB7FEB7128301838EE092E0D7
:1047F000948383830E94CE320F900F900F900F907E
:10480000C8010E94212B00D000D005EC14E0EDB7C8
:10481000FEB7128301838EEF91E0948383830E941D
:10482000CE3233EF432E31E0532ECC24DD24EE2460
:10483000FF240F900F900F900F90702E012F29E002
:10484000A22EB12CAC0EBD1E4E010894811C911CF1
:1048500085EC94E00E94BD2C982F8D3031F08D3086
:10486000DCF180538230C0F530C01830A1F5998159
:10487000892F8053823078F5913311F490E801C08C
:1048800090E08A81813309F4905C8B81813309F453
:10489000905E8C81813309F4905F8D81813309F4BE
:1048A000985F8E81813309F49C5F8F81813309F495
:1048B0009E5F8885813309F49F5FF501EE0DFF1D32
:1048C00090830894E11CF11C06C0F401E10FF11D76
:1048D00090831F5F01C010E0F0E4EF16F104C9F40B
:1048E00082EE94E0B601A5010E94752A0894C11CCD
:1048F000D11C00D000D0EDB7FEB771820283548284
:1049000043820E94CE32EE24FF240F900F900F902E
:104910000F90FFEFCF16D10409F00CF499CFC85BCC
:10492000DF4F0FB6F894DEBF0FBECDBFCF91DF9142
:104930001F910F91FF90EF90DF90CF90BF90AF90BD
:104940009F908F907F905F904F900895AF92BF920D
:10495000CF92DF92EF92FF920F931F93DF93CF934B
:10496000CDB7DEB7CC57D0400FB6F894DEBF0FBE40
:10497000CDBF4DE0E42EF12CEC0EFD1E5E0108943F
:10498000A11CB11CCC24C3948E010B5E1F4F01C22D
:1049900085EC94E00E94BD2CD82E8091A20588233E
:1049A00011F50E946B3460527E4480409040D8F4F0
:1049B0000E946B346958734180409040A0F0FAE047
:1049C000DF1619F02DE0D21631F48091A3058F5F28
:1049D0008093A30502C01092A3058091A3058330A4
:1049E00011F40E94CB2380E06D2DA70195010E9458
:1049F000E520882309F4C9C1C092A2058C898332BD
:104A000009F471C1843260F4813009F449C0813005
:104A1000B8F0883109F464C08E3109F0B6C1DDC048
:104A20008E3309F408C18F3320F48A3209F0ADC106
:104A300055C18A3409F486C0883A09F0A6C17FC1FD
:104A4000C0921C058A898093A4058B898093A50553
:104A5000F801848180930F05F7018085809310050C
:104A6000F80186818093A6058823880F880B8C2106
:104A7000809350051092A7050E946B340E94B736B0
:104A800060939D0570939E0580939F059093A0056C
:104A90008091D902813009F078C18093A80575C151
:104AA000F7016689778980E090E00E94B73620E0C0
:104AB00030E04AE754E40E941E3660933305709359
:104AC00034058093350590933605F701808D918DDF
:104AD000909362058093610586A180933B0555C143
:104AE000F70160897189828993890E94B93620E82B
:104AF00036E948E15BE40E941E3660932905709315
:104B00002A0580932B0590932C05F70164897589FC
:104B1000868997890E94B93620E836E948E15BE446
:104B20000E941E3660932D0570932E0580932F05ED
:104B300090933005F801848D80933205858D8093A4
:104B4000310523C1F80180819181A281B3818093D5
:104B5000CA029093CB02A093CC02B093CD02848181
:104B60009581A681B7818093510590935205A093BA
:104B70005305B0935405F701608D718D882777FD3B
:104B80008095982F0E94B936609317057093180589
:104B90008093190590931A05F701828D938D909358
:104BA0003D0580933C0580899189A289B3898093D2
:104BB000550590935605A0935705B0935805F801F5
:104BC00084859585A685B78580935D0590935E0560
:104BD000A0935F05B0936005D8C0F7016089718923
:104BE0008289938921EE3EE245E652E40E94EC3749
:104BF0000E94863660930905F8016481758186817B
:104C0000978121EE3EE245E652E40E94EC370E9495
:104C1000863660930A05F8016485758586859785D3
:104C200021EE3EE245E652E40E94EC370E948636D1
:104C30006093A905AAC0F80180819181A281B38106
:104C40008093630590936405A0936505B093660512
:104C500084819581A681B7818093670590936805CB
:104C6000A0936905B0936A058489958990936C0532
:104C700080936B0586899789909316058093150517
:104C8000F70180A191A19093140580931305808969
:104C90009189A289B38980936D0590936E05A09345
:104CA0006F05B0937005F80184859585A685B78555
:104CB0008093750590937605A0937705B09378055A
:104CC000F701808D918DA28DB38D809371059093A6
:104CD0007205A0937305B093740557C0F7018085E2
:104CE0008093120552C0F8018481958190938A05C2
:104CF00080938905868197819093900580938F0595
:104D0000848595859093D2028093D102868597857C
:104D10009093D4028093D302F701808D918D90936C
:104D2000D6028093D502F801828993899093D802A4
:104D30008093D702F701858D80939A0526C0F801EC
:104D400080819181A281B3818093840590938505B0
:104D5000A0938605B093870584819581A681B7814C
:104D600080930B0590930C05A0930D05B0930E0551
:104D7000F70180899189A289B3898093AA059093CC
:104D8000AB05A093AC05B093AD058AE890E00E9416
:104D9000D23485EC94E00E948D2C181619060CF480
:104DA000F7CD8091AE059091AF052B853C85820FA4
:104DB000931F9093AF058093AE052B818091B00532
:104DC0009091B105820F911D9093B1058093B0052C
:104DD000C458DF4F0FB6F894DEBF0FBECDBFCF91E2
:104DE000DF911F910F91FF90EF90DF90CF90BF90D8
:104DF000AF9008952F923F924F925F926F927F9261
:104E00008F929F92AF92BF92CF92DF92EF92FF92DA
:104E10001F93CF93DF9385E090E06CE070E00E94F9
:104E20004F1264EF71E080E090E00E947934A6E4D4
:104E30002A2EA2E03A2EFEE34F2EF2E05F2EE6E3AA
:104E40006E2EE2E07E2E7EE2872E72E0972E66E2E4
:104E5000A62E62E0B62E5DE1C52E52E0D52EEE24E0
:104E6000FF2410E0C2EED4E0C7016AEF70E00E94B8
:104E70001239892B09F091C01F5F82EE94E061E145
:104E80004CE00E94652A82EE94E00E943D2B143093
:104E900009F444C0153050F4113019F11130C0F04C
:104EA000123051F1133009F074C02FC0173009F4DB
:104EB00050C0183030F41530D1F1163009F069C007
:104EC0003FC0183009F44EC0193009F062C053C019
:104ED00000D000D0EDB7FEB7D283C18386E692E062
:104EE00008C000D000D0EDB7FEB7D283C1838EE5F5
:104EF00092E09483838347C000D000D0EDB7FEB723
:104F0000D283C18386E592E0F4CF00D000D0EDB724
:104F1000FEB7D283C1838EE492E0EBCF00D000D005
:104F2000EDB7FEB7D283C183348223822CC000D078
:104F300000D0EDB7FEB7D283C1835482438223C031
:104F400000D000D0EDB7FEB7D283C18374826382F4
:104F50001AC000D000D0EDB7FEB7D283C1839482CF
:104F6000838211C000D000D0EDB7FEB7D283C183D9
:104F7000B482A38208C000D000D0EDB7FEB7D283C0
:104F8000C183D482C3820E94CE320F900F900F90C3
:104F90000F9082EE94E00E94212B61E070E080E0AF
:104FA00090E00E9479340894E11CF11CF1EDEF16B9
:104FB000F7E0FF0609F058CFDF91CF911F91FF90E6
:104FC000EF90DF90CF90BF90AF909F908F907F90A9
:104FD0006F905F904F903F902F90089586E061E032
:104FE0000E94CF3308950F931F938091A8058130BD
:104FF00009F051C002EE14E0C8010E948A2BC801DA
:1050000063E04AE00E94652AC8010E943D2B00D05F
:1050100000D0EDB7FEB7128301838EE692E0948351
:1050200083830E94CE320F900F900F900F90C80193
:105030000E94212B0E94670562E370E080E090E00F
:105040000E9479340E94670562E370E080E090E09E
:105050000E9479340E94670562E370E080E090E08E
:105060000E9479341092A80560ED77E080E090E02E
:105070000E947934C8010E948A2B1092D9020E94A2
:105080006B340E94B73660939D0570939E058093A4
:105090009F059093A0050E94A62484EF94E00E94AF
:1050A00051331F910F9108950F931F93CF93DF9367
:1050B00086E061E00E94903305EC14E0C80140E016
:1050C00051EE60E070E00E942B2C1093500600938C
:1050D0004F060E94EE27C2EED4E0CE010E94C32B01
:1050E0000E940C1764EF71E080E090E00E94793438
:1050F00082EF93E00E944E078C34E1F0CE0163E032
:1051000049E00E94652ACE010E943D2B00D000D0CC
:10511000EDB7FEB7D283C18388E892E0948383839E
:105120000E94CE320F900F900F900F90CE010E94F0
:10513000212BFFCF0E94DE0610924F0507C00E9470
:10514000891B80914F058F5F80934F0580914F059C
:105150008230A8F310924F050E94FA2684EF94E063
:105160006DE37AE228E730E040E050E000E00E94A2
:10517000033382EE94E00E948A2B84EF94E00E9435
:105180006933DF91CF911F910F9108952F923F9234
:105190004F925F926F927F928F929F92AF92BF9247
:1051A000CF92DF92EF92FF920F931F93DF93CF93F3
:1051B00000D000D0CDB7DEB78091A105882349F596
:1051C00080913205823008F441C180912905909187
:1051D0002A05A0912B05B0912C0580932E06909363
:1051E0002F06A0933006B093310680912D05909143
:1051F0002E05A0912F05B091300580933206909333
:105200003306A0933406B093350681E08093A10560
:105210001DC1813009F01AC1A090360688E18A15B7
:10522000B0F1E0905505F0905605009157051091AA
:105230005805609137067091380680913906909133
:105240003A06A80197010E9450359F7720E030E090
:1052500040E05FE30E94E13718165CF410923606D6
:10526000E0923706F09238060093390610933A061A
:105270000EC08A2D8F5F80933606893141F4E0920B
:105280005905F0925A0500935B0510935C05E09078
:105290002E06F0902F060091300610913106C801BD
:1052A000B7019F7725E33AEF4EE85CE30E94EC37C5
:1052B0000E941B3669837A838B839C83C801B70164
:1052C0002091290530912A0540912B0550912C05FC
:1052D0000E9450351B012C019F7720EC3BE649EDE5
:1052E00057E40E94EC375B016C01609132067091CB
:1052F0003306809134069091350620912D0530912A
:105300002E0540912F05509130050E9450353B01EC
:105310004C019F7720EC3BE649ED57E40E94EC37C7
:1053200029813A814B815C810E94EC377B018C01A1
:10533000C601B501A60195010E94EC375B016C0125
:10534000C801B701A80197010E94EC379B01AC018D
:10535000C601B5010E9451350E9473380E948636FD
:1053600060933705709338058093390590933A051B
:1053700060E070E080E89FE329813A814B815C81A5
:105380000E941E369B01AC01C201B1010E94EC37A4
:1053900097FA909497F89094A40193010E94C435D1
:1053A00020EE3EE245E652E40E94EC3720E030E099
:1053B00044EB52E40E9451350E9486369B01AC01B9
:1053C00097FF04C028593E4F4F4F5F4FCA01B901A4
:1053D000645B70408040904097FF06C0CA01B901ED
:1053E0006C547F4F8F4F9F4F0E94B9362091170505
:1053F000309118054091190550911A050E945035B9
:105400000E94863697FF04C068597E4F8F4F9F4F8A
:105410000E94B93620E030E044EB53E40E941E368F
:1054200020E030E040E851E40E94EC370E944F3821
:1054300020E030E040E85FE30E9451350E948B3667
:1054400060931105613110F0109211050F900F90CB
:105450000F900F90CF91DF911F910F91FF90EF90E0
:10546000DF90CF90BF90AF909F908F907F906F9084
:105470005F904F903F902F9008950E94AD0982EE6B
:1054800094E00E94C6280E949A180895FC01138295
:10549000128288EE93E0A0E0B0E084839583A68337
:1054A000B7838AE194E0918380830895FC01808929
:1054B000803419F421E030E002C020E030E0C9017E
:1054C0000895FC01818990E00895FC016487458777
:1054D00066874787089580E090E0089580E090E037
:1054E000089580E090E008950895EF92FF921F9351
:1054F000CF93DF93162F7A0186E060E00E94CF33CE
:1055000080E494E060E00E94860480E494E060E03F
:105510000E94860480E494E069E00E94860480E4AE
:1055200094E0612F0E948604C0E0D0E0F701EC0F08
:10553000FD1F108180E494E06AE00E94860480E40C
:1055400094E06C2F0E94860480E494E06BE00E945B
:10555000860480E494E0612F0E9486042196C6337D
:10556000D10521F780E494E068E00E94860480E49D
:1055700094E060EA0E94860480E494E060EA0E947D
:10558000860485FDF9CF80E494E060E00E94860403
:1055900080E494E06CE00E94860486E061E00E9472
:1055A000CF33DF91CF911F91FF90EF9008951F931C
:1055B000CF93DF93EC01162F86E060E00E94CF339B
:1055C00080E494E060E00E948604112319F0113019
:1055D00059F404C080E494E0688904C068896C616F
:1055E00080E494E00E94860486E061E00E94CF336C
:1055F000DF91CF911F910895EF92FF920F931F9328
:105600008EE1489F70011124E60EF11C86E060E0F7
:105610000E94CF3300E414E0C80165E00E948604D4
:10562000C8016F2D0E948604C80166E00E948604AE
:10563000C8016E2D0E9486041F910F91FF90EF907C
:105640000895EF92FF920F931F937C0100E414E002
:10565000C80167E00E948604C8016FEF0E948604BB
:1056600086E061E00E94CF33F70187858F5F8787EF
:105670001F910F91FF90EF900895EF92FF920F937B
:105680001F93FC01E7848EE1E89E7001112486855A
:10569000E80EF11C86E060E00E94CF3300E414E0E5
:1056A000C80164E00E948604C80163E00E94860489
:1056B000C80165E00E948604C8016F2D0E9486041F
:1056C000C80166E00E948604C8016E2D0E9486040F
:1056D0001F910F91FF90EF9008951F93CF93DF9349
:1056E000EC01162F6C3731F40E94212BCE010E9461
:1056F0003D2B0AC080E494E067E00E94860480E4C9
:1057000094E0612F0E94860481E090E0DF91CF91C8
:105710001F9108950F931F9386E060E00E94CF339E
:1057200000E414E0C80164E00E948604C80164E05B
:105730000E94860486E061E00E94CF331F910F91A2
:1057400008951F93CF93DF93EC01188A16E0198B0D
:105750008EE496E060E973E00E94F032813049F413
:1057600080E4888B88E0898B86E060E00E94CF33FC
:1057700002C0188A198B86E060E00E94CF33DF9167
:10578000CF911F9108951F93CF93DF93EC0186E093
:1057900061E00E94903382E060E00E94903382E0FA
:1057A00061E00E94CF33CE010E94A12B86E060E031
:1057B0000E94CF3380E494E06CEE0E94860480E483
:1057C00094E06FEF0E948604182F80E494E060E07C
:1057D0000E9486046889626080E494E00E948604E6
:1057E00062E370E080E090E00E94793480E494E02D
:1057F0006CE60E9486041F7E80E494E0612F0E9484
:10580000860410923C0610923B0617C060913B063E
:1058100070913C06605F80E494E00E94860480E41E
:1058200094E060E00E94860480913B0690913C06E3
:10583000019690933C0680933B0680913B069091A5
:105840003C060C971CF3CE0161E00E94D72ADF9141
:10585000CF911F9108950F931F93DC01ED91FC915F
:105860000288F389E02D20E030E000E010E00995A7
:105870001F910F9108958F92AF92CF92EF92FF9266
:105880000F931F93DF93CF93CDB7DEB7FC01138245
:10589000128288EE93E0A0E0B0E084839583A68333
:1058A000B7838CE294E09183808355874487378760
:1058B0002687118B008BF38AE28AC48AA58A868A9E
:1058C00070E0CB0123E0880F991F2A95E1F79C0136
:1058D000235C394F308F278B8B5B994F928F818F51
:1058E00081E090E002C0880F991F6A95E2F720914D
:1058F0004D06282B20934D06CF0140E051EE60E08D
:1059000070E00E942B2CCF91DF911F910F91FF909F
:10591000EF90CF90AF908F900895FC01838D8823F6
:1059200019F42FEF3FEF0DC00788F08DE02D208197
:10593000318182819381281B390B848195812823B1
:105940003923C9010895FC01838D882319F42FEFB1
:105950003FEF11C0018CF28DE02D208131818281D9
:105960009381281B390B20953095848195812823BC
:1059700039232F5F3F4FC9010895FC01838D882390
:1059800061F0A789B08D2D913C91119712968D9160
:105990009C9113972817390721F44FEF5FEFCA0145
:1059A000089512968D919C9113971696ED91FC9106
:1059B0001797E80FF91F408112968D919C911397CC
:1059C000019614962D913C9115978223932313965B
:1059D0009C938E93129750E0E2CFFC01838D882335
:1059E00051F00788F08DE02D2081318182819381F3
:1059F0002817390721F42FEF3FEFC901089582815D
:105A000093810680F781E02DE80FF91F8081282F10
:105A100030E0F3CFDC015796ED91FC9158978281ED
:105A20009381918380835996ED91FC915A9780815F
:105A30009181938382830895DC015B968C915B97BF
:105A40008823A9F15996ED91FC915A9720813181D3
:105A50002F5F3F4F84819581282339235C968C9159
:105A60005C97882329F08281938128173907F9F000
:105A70008281938128173907D9F38081918106802B
:105A8000F781E02DE80FF91F60835996ED91FC91A5
:105A90005A97318320835296ED91FC9153978081E0
:105AA00056969C91892B808321E030E002C020E053
:105AB00030E0C9010895CF93DF93EC011B821A8275
:105AC0008A819B81998388831D821C828E819F811C
:105AD000009721F00E9418041F821E82DF91CF914F
